:08000000803102288731FD2F39
:100F7400F0302100990020008C01FB3021008C000E
:100F84002930F1009630F0007F30890BC72FF00B29
:100F9400C72FF10BC72F000020000C150530F100FE
:100FA4000F30F000F130890BD52FF00BD52FF10B5A
:100FB400D52F000020000C111530F1004B30F0004B
:100FC400BE30890BE32FF00BE32FF10BE32F00323C
:100FD40020000C152930F1009630F0007F30890B89
:100FE400F12FF00BF12FF10BF12F000020000C1169
:0C0FF400C22F8031022820008731BA2F64
:020000040001F9
:08000000FF3FFF3FFF3FFF3F00
:04000E00E40FFF1FDD
:00000001FF
