:04000000803117280C
:100008007E1480312000111C0A280B281528FE3088
:10001800F000700891053C30970060309600013080
:10002800B4007E1009008031192883313E238031C5
:10003800FC0083313C238031B50083313D2380317E
:10004800B600FB01AC01AD01AE01AF01B001B101D9
:10005800B201B301B4017E102000803133282000A2
:10006800A901A701A8012130890B38280000823195
:1000780086228031F10103308231D8228031FB01A0
:10008800FC010030F900FA0081318521803180318E
:10009800B52080312000B301B401181420003408C1
:1000A80003195728582861280130A5002508B307E7
:1000B8000130A5002508B107B40114303302031C30
:1000C800662867289628B301B201B20AB101B001C7
:1000D800B00A9628290883310C23803121009D1409
:1000E80002302000B200A92821009D187C287D2814
:1000F800A92803308231B022803172082000AB0079
:100108007108AA002B08FA002A08F9008131852114
:1001180080318131D12180318031B520803120007A
:10012800B201A9283208A500A6012608003A031939
:100138009E28A9282508003A0319A928013A031975
:100148006E28033A03197828A928200030080319D3
:10015800AE28AF2852288331262380315228803197
:1001680017287B080319B928BB280130BC280030A0
:10017800F60083311A238031403081311E218031CD
:100188008231F422803183311A238031C0308131A9
:100198001E218031F80178082C3E8600870101086D
:1001A800323E840083300318013E85000008F700C2
:1001B8007608031DE028E128F22878082C3E8600FE
:1001C80087010108031DE928EA28F228033078028C
:1001D8000318EF28F028FB28F701FB28F601F60A98
:1001E80078087C06031DF928FA28FB28F71703303E
:1001F8007802031C002901290229F70177088131B7
:100208001E2180310130F5007508F80704307802A6
:10021800031C0F291029CF288231F4228031833121
:100228001A2380318D3081311E2180318231F422B0
:1002380080310800F300F401DF30F100710821007B
:100248008C0520008C12A0300032890B2829731CE1
:100258002E292F29322921000C163929EF30F100D7
:10026800710821008C0520000C12A0300032890B87
:100278003A297336F30021008C16A0300032890B1E
:1002880042290130F1007108F40708307402031C98
:100298004E294F292029DF30F100710821008C05F3
:1002A80020008C1221000C1620000C12A030003205
:1002B800890B5B2921008C16A0300032890B61293B
:1002C800003020000C1A0130F2007208031D6D295D
:1002D8006E297529EF30F100710821008C05200086
:1002E8000C12A0300032890B7629DF30F10071083A
:1002F80021008C0520008C12A0300032890B812946
:10030800080003302000A300A40124082C3E860026
:10031800870181010130A0002008A40704302402CD
:10032800031C972998298929CA29A31B9C299D2937
:10033800C8290A30F1000030F2007A08F400790880
:10034800F30082315222813172082000A200710824
:10035800A10023082C3E86008701210881000A306D
:10036800F1000030F2007A08F4007908F3008231D5
:10037800162281317208FA007108F900FF30200056
:10038800A0002008A307CA29F901FA0179087A040C
:10039800031DCF29D02999290800F2010330F30061
:1003A80003307306031DD929DA29EB2973082C3E7B
:1003B8008600870106300102031CE329E429E629A7
:1003C800F201F20A73082C3E860087018101730846
:1003D800803A7D3E0318F129F2290D2A7208F100AE
:1003E80073082C3E860087017108810773082C3E2C
:1003F800860087010A300102031C032A042A0C2AFA
:1004080073082C3E860087018101F201F20A0D2A49
:10041800F201FF30F1007108F307F31F142A152ABF
:10042800D4290800F601F7017108720403191D2A7E
:100438001E2A4D2AF801F80A2A2A0130F135F20D50
:10044800890B222A0130F5007508F807F21F2D2ABA
:100458002E2A212A0130F635F70D890B2F2A72082A
:100468007402031D392A71087302031C3C2A3D2AB1
:10047800422A7108F3027208F43B76140130F2360E
:10048800F10C890B432A0130F802031D4C2A4D2A2E
:100498002E2A7708F2007608F10008007108720425
:1004A8000319572A582A812AF601F60A642A0130C4
:1004B800F135F20D890B5C2A0130F5007508F60755
:1004C800F21F672A682A5B2A72087402031D6E2AC3
:1004D80071087302031C712A722A762A7108F302C2
:1004E8007208F43B0130F236F10C890B772A01309F
:1004F800F602031D802A812A682A7408F20073080C
:10050800F1000800F0302100990020008C01303003
:1005180021008C000330F10071088C0407302200A0
:100528009100883021009500200098013030F100BA
:10053800710898041815603096003C309700013017
:1005480021009100FE30F100710820009105C030B3
:10055800F10071088B040800FA000130FA0221004A
:100568001B08F300F4017308F8007408F9001C086C
:10057800F300F4017308F400F3017308F804740835
:10058800F9047908F4007808F3007A0ACD2AF335DB
:10059800F40D890BCB2A7308F6007408F700770866
:1005A800F2007608F1000800F4008030220097007D
:1005B8007408F20072089704033023008C0001309D
:1005C80021009D007108F2000130F235FF3E031D45
:1005D800E92A7235F30073089D04A3309E000800D1
:1005E800EF30F100710821008C0520000C12A030BA
:1005F8000032890BFC2A21008C16A0300032890BAE
:10060800022B21000C16A0300032890B082B0800A1
:10061800F3007308F1000130F135FF3E031D102B84
:100628007135F200720821009D040800EF30F100D6
:10063800710821008C0520000C12A0300032890BB3
:10064800222B0800200031083002031C2C2B2D2BF4
:100658002F2B0C15312B0C11B00108003F34063438
:100668005B344F3466346D347D3407347F346F34F3
:10067800033405346334033480348834C03440345C
:06068800033403340434C6
:020000040001F9
:08000000FF3FFF3FFF3FFF3F00
:04000E00E40FFF1FDD
:00000001FF
