:08000000803102288731ED2F49
:100BE000053401346334EF30F000700821008C05C7
:100BF00020000C12A0300032890BFB2D0800F030D1
:100C00002100990020008C01303021008C0023004D
:100C10008C010730220091008830210095000800E7
:100C2000EF30F000700821008C0520000C12A0307D
:100C30000032890B182E21008C16A0300032890B4F
:100C40001E2E21000C16A0300032890B242E080025
:100C50007008710403192D2E2E2E572EF501F50A5A
:100C60003A2E0130F035F10D890B322E0130F400AF
:100C70007408F507F11F3D2E3E2E312E71087302C8
:100C8000031D442E70087202031C472E482E4C2E62
:100C90007008F2027108F33B0130F136F00C890B59
:100CA0004D2E0130F502031D562E572E3E2E730891
:100CB000F1007208F0000800F501F60170087104F7
:100CC0000319632E642E932EF701F70A702E01305C
:100CD000F035F10D890B682E0130F4007408F70728
:100CE000F11F732E742E672E0130F535F60D890B2A
:100CF000752E71087302031D7F2E70087202031C8B
:100D0000822E832E882E7008F2027108F33B751430
:100D10000130F136F00C890B892E0130F702031DEA
:100D2000922E932E742E7608F1007508F0000800BC
:100D30002000A401A5018531FF2586310530FC0086
:100D40000F30FB00F130890BA32EFB0BA32EFC0B05
:100D5000A32E00000030F800F9008631DE2686312F
:100D600087312B27863101302000A4070030A53DB4
:100D700027302502103003192402031CC02EC12E77
:100D8000C32EA401A5012508F9002408F800863126
:100D9000DE268631003A0319CE2ECF2EB32E29300F
:100DA000FC009630FB007F30890BD42EFB0BD42E39
:100DB000FC0BD42E0000B02E80310228033020001E
:100DC000A200A3012308263E86008701810101308D
:100DD000FA007A08A30704302302031CF02EF12E38
:100DE000E22E232FA21BF52EF62E212F0A30F00023
:100DF0000030F1007908F3007808F20086312826E7
:100E0000863171082000A1007008A0002208263E4B
:100E100086008701200881000A30F0000030F100D0
:100E20007908F3007808F20086315C268631710873
:100E3000F9007008F800FF30FA007A082000A207D5
:100E4000232FF801F90178087904031D282F292F91
:100E5000F22E01300800F5018531F325873140304D
:100E60008731862787318631102687318531F325F2
:100E70008731C030873186278731F7017708263ED2
:100E8000860087010108003E840088300318013E77
:100E900085000008F6007508031D4F2F502F612FA5
:100EA0007708263E860087010108031D582F592F19
:100EB000612F0330770203185E2F5F2F6A2FF60130
:100EC0006A2FF501F50A63307706031D682F692F35
:100ED0006A2FF61776088731862787310130F400AC
:100EE0007408F70704307702031C772F782F3E2F02
:100EF0008631102687318531F32587318D30873152
:100F0000862787318631102687310800F200F301E9
:100F1000DF30F000700821008C0520008C12A0301A
:100F20000032890B902F721C962F972F9A2F210039
:100F30000C16A12FEF30F000700821008C05200066
:100F40000C12A0300032890BA22F7236F200210061
:100F50008C16A0300032890BAA2F0130F0007008E7
:100F6000F30708307302031CB62FB72F882FDF302A
:100F7000F000700821008C0520008C1221000C1656
:100F800020000C12A0300032890BC32F21008C16D8
:100F9000A0300032890BC92F003020000C1A01301C
:100FA000F1007108031DD52FD62FDD2FEF30F00093
:100FB000700821008C0520000C12A0300032890B33
:100FC000DE2FDF30F000700821008C0520008C122D
:100FD000A0300032890BE92F08008531F0258731D8
:100FE000FD008531F1258731AA008531F225873151
:100FF000AB00A601A701A801A90120008631982E07
:101000003F3406345B344F3466346D347D340734FA
:101010007F346F3480348834C03440340334043433
:020000040001F9
:08000000FF3FFF3FFF3FFF3F00
:04000E00E40FFF1FDD
:00000001FF
